:030000000200609B
:0E003B00D2B5C200A7F709B9500312009532E2
:1000600075CBFF75CAFB75CDFF75CCFB75985275C6
:10007000C83475F83775A901D2AF79407800743269
:1000800012010108C2B588F7D2002000FDE8B40AC9
:10009000F2780080EEB2B490010D1200C17940E711
:1000A000FA740A1200D9740D1200D9EA1200E1099B
:1000B000E7FAE9B450EB0200B97432120101794059
:1000C00032C0E0C0F0E4F5F0E5F005F09360051211
:1000D00000D980F4D0F0D0E0223099FDC299F59992
:1000E00022C0E0C41200F511D9D0E0C0E01200F542
:1000F00011D9D0E022540FB40A0040022407243062
:1001000022FA7B327C83DCFEDBFADAF6220A0A0D65
:100110005F5F5F5F5F5F5F5F5F5F5F5F5F5F5F5FEF
:100120005F5F5F5F5F5F5F5F5F5F5F5F5F5F5F5FDF
:100130005F5F5F5F0A0D416E616C6F67204465769B
:1001400069636573204D6963726F436F6E76657284
:1001500074657220414475433832340A0D202020E2
:10016000202020535049204D41535445522044658E
:100170006D6F20526F7574696E650A0D20204461A1
:1001800074612053746F72656420696E204D656DD3
:100190006F727920696E2048657820466F726D0A0B
:0201A0000D0050
:00000001FF
