:0300000002008E6D
:10005B0012005F32B2B3221201B41201B4E5A5B49F
:10006B00050C1201B47FC87E0012003E80F475A50A
:10007B0005C2B47FB87E0B12003E7F8212002300B4
:10008B000201A0C2B37FB87E0B12003EC2B420C2E5
:10009B00C675A50075A40075A1017F6A1200237FA8
:1000AB00587E0212003ED2B47F647E0012003EC224
:1000BB00B41200037F587E0212003ED2B47F647EDE
:1000CB000012003EC2B41200037F587E0212003EA3
:1000DB00D2B47F647E0012003EC2B41200037F587C
:1000EB007E0212003ED2B47F647E0012003EC2B488
:1000FB001200037F587E0212003ED2B47F647E0052
:10010B0012003EC2B41200037F4C7E0412003EAFBD
:10011B00C0EFBF6A0280030201A01201B47F62121A
:10012B0000237F587E0012003ED2B47F647E001203
:10013B00003EC2B41200037F587E0212003ED2B4BE
:10014B007F647E0012003EC2B41200037F587E0211
:10015B0012003ED2B47F647E0012003EC2B4120085
:10016B00037F587E0212003ED2B47F647E001200E1
:10017B003EC2B41200037F587E0212003ED2B47FFF
:10018B00647E0012003EC2B41200037F4C7E041248
:10019B00003E0201A0D2B47F1E7E0012003EC2B40C
:1001AB007F007E0812003E80EC7A217F1E7E0012BB
:1001BB00003ED2B41200037F1E7E0012003EC2B47A
:0301CB00DAE9224C
:10003E00EF7004EE600E1E7D0B74FAD5E0FDDDF957
:07004E00DFF580EF7F0122C6
:10002300EF30E70A20E60330E5047F00800CA2AF3F
:0B003300C2AFD2C08FC092AF7F01228D
:10000300E5C030E10930E70A20E60330E5047F006C
:10001300800DA2AFC2AFD2C043C00292AF7F012214
:00000001FF
