:100A21000A0A414475433834312050574D204465FA
:100A31006D6F6E7374726174696F6E2050726F673F
:100A410072616D0A003D3D3D3D3D3D3D3D3D3D3DBC
:100A51003D3D3D3D3D3D3D3D3D3D3D3D3D3D3D3DC5
:100A61003D3D3D3D3D3D3D3D3D3D3D3D0A00436FED
:100A71006E6E6563742031306B20726573697374B7
:100A81006F722066726F6D2050322E3620285057BB
:100A91004D206F7574290A00766961203130306EFE
:100AA1004620746F2067726F756E642E20436F6EDF
:100AB1006E656374206F7363696C6C6F73636F70C1
:100AC100650A00616363726F7373206361706163B0
:100AD10069746F722E2052657065617420666F7241
:100AE1002050322E372E0A004F7363696C6C6F737E
:100AF100636F70652077696C6C2073686F77207302
:0C0B01006C6F772072616D70732E0A001B
:03000B00020C9054
:100C9000C0E0C0D07404250AF50AE43509F509B2AC
:060CA000B4D0D0D0E03218
:03001B00020CA62E
:100CA600C0E0C0D07404250AF50AE43509F509B296
:060CB600B4D0D0D0E03202
:100B0D00E4FFFDFB120C6E75093E750A80758C0AAB
:100B1D00758A0A438902D28C75A8827F027DB87CC2
:100B2D00FF120BC07BFF7A0A792112061B7BFF7A1D
:100B3D000A794612061B7BFF7A0A796F12061B7B18
:100B4D00FF7A0A799912061B7BFF7A0A79C412067D
:100B5D001B7BFF7A0A79E912061B75276F75261222
:100B6D0075258375243A7F67120003E4250AFDE598
:100B7D00093480FCE4120129AB27AA26A925A82453
:100B8D0012001E120162C3E50A9FF523E5099EF5C9
:100B9D0022C3E50994805006850922850A237F0129
:100BAD00AD23AC22120C42E4FFAD0AAC09120C428B
:030BBD0080B922DA
:030003008FAE229B
:100C4200E5AE54706012B41002800DB43002800818
:100C5200B440028003B46011EF70068DB18CB28093
:0C0C6200048DB38CB47F0180027F00225F
:100C6E00E5AE54706008B420028003B45011EF70EA
:100C7E00068DB18BB380048DB28BB47F0180027F61
:020C8E00002242
:100BC000EFC2E7FF790BF754036027B401028015E9
:100BD000B402098CCB8DCA75C83480168D9D8C9E4D
:100BE000439E80800D4387805389CF4389208D8D1C
:100BF000D28EEF540C75985060037598D0D299E757
:020C0000FF22D1
:10001E00EC4D6011E8497017ED33EC3304600DE4DC
:10002E00FCFFFEFD22E933E8330470F80201CE1224
:10003E00019958046009E4CC248150062850090225
:10004E0001D82840030201D5C0E0EB4A7044B980C4
:10005E0006D0E0FB0201C4EF4E701CBD8008EBFF22
:10006E00EAFEE9FD80EBE98DF0A4FEE5F002010762
:10007E00E9CDF9EAFEEBFFEF89F0A4FCE5F0CE89BD
:10008E00F0A42EFFE435F0CD89F0A42DFEE435F07A
:10009E008067EF4E7005BD80D780C3EF8BF0A4ACA8
:1000AE00F0EE8BF0A42CFCE435F0F8EF8AF0A42CE3
:1000BE00E5F038FCE433CB8DF0A42CFCE5F03BF8F6
:1000CE00EE8AF0A42CFCE5F038F8E433CF89F0A4E6
:1000DE002CFCE5F038CF3400CE89F0A42FFFE5F0EC
:1000EE003EFEE433C98DF0A42EFEE5F039CD8AF044
:1000FE00A42FFFE5F03EFEE43DFD33D0E0FB5007BC
:10010E000BBB000F0201D8EC2CFCEF33FFEE33FEDD
:06011E00ED33FD0201B00B
:1001240075F020800E75F010800575F0087D007E56
:10013400007F003392D530D503120575EC3340109F
:10014400EF33FFEE33FEED33FDEC33FCD5F0ED225F
:0E015400E5F0247EA2D513CC92E7CDCEFF229B
:10016200EDD2E7CD33EC3392D524814006E4FFFE95
:10017200FDFC22FCE4CFCECDCC24E0501174FF80F4
:10018200EDC3CC13CCCD13CDCE13CECF13CF047091
:07019200F030D5DE02057517
:1005B900E53F242BF8E6053F227828300702782BFF
:1005C900E475F00112058302051D2000EB7F2ED290
:1005D900008018EF540F2490D43440D4FF30040B1A
:1005E900EF24BFB41A0050032461FFE540600215EF
:1005F900400543E5437002054230070D7828E4754C
:10060900F001120583EF020563020C027403D2079D
:100619008003E4C207F53F8B288A29892AE4F5403B
:10062900F542F543E54060077F201205F480F5F5B2
:1006390041C201C200C202C203C205C206C20812F7
:1006490005C2FF700D3007057F00120605AF43AEE6
:100659004222B42563C2D5C2041205C2FF24D0B414
:100669000A00501E75F00A20D50DC540A42540F595
:10067900407002D20380E0D200C541A42541F54172
:1006890080D524CFB41A00EF5004C2E5D204020881
:10069900EDD20180C2D20080BCD20280B8D2D5800E
:1006A900B6D20580B07F201205F42002077401B587
:1006B900400040F11205B9FF1205F402062DD208D7
:1006C900D20680911205B9FB1205B9FA1205B9F9DA
:1006D9004A4B700679DF7A097BFF200233E54060D7
:1006E9002FAF41BF00011F7E008E82758300120566
:1006F9003660050EEE6F70F1C2D5EBC0E0EAC0E0DE
:10070900E9C0E0EE120948D0E0F9D0E0FAD0E0FB08
:1007190012051DFF60A5EBC0E0EAC0E0E9C0E012E8
:1007290005F4D0E02401F9D0E03400FAD0E0FBE58B
:100739004160DDD541DA8083D202809E12092D60A5
:10074900F7E5417001041201E3A941600DE541603B
:100759000914F5411209D2EF60F3EA30E702F40413
:10076900C3995077EAF425410430E701E404F541DF
:10077900800D12092D60C1EA054125411201E3EA04
:10078900783EF630E701E4254104D541042005010E
:1007990014120948E4C0E01209D2783EE660132039
:1007A900E70714F61205DC802204F6D0E014C0E055
:1007B9007F001205DCE54160071205D31541800B66
:1007C9003005031205D3D0E002062DD0E00480C520
:1007D90012092D60A0E541041201E3783EEAF6E52D
:1007E90041200502600104240412094874FF04C071
:1007F900E01209D21205DCE5412005026003120569
:10080900D3D0E0B541E87F451205E6783EE67F2B77
:1008190030E7047F2DF404C0E01205F4D0E075F050
:070829000A84C0F01205DD96
:10083000D0E01205DD02062D791080027908C2068B
:10084000C2088008D2D5790A8004790AC2D5E4FAB0
:10085000FDFEFF1205B9FC7B082001131205B9FD4E
:100860007B1030000A1205B9FE1205B9FF7B20EC9F
:100870003382D592D55013C3E43000069FFFE49E27
:10088000FEE42001039DFDE49CFCE4CBF8C201ECF6
:10089000700CCFCECDCCE824F8F870F38017C3EFFE
:1008A00033FFEE33FEED33FDEC33FCEB33FB9940CD
:1008B00002FB0FD8E9EB300105F8D0E0C448B201E3
:1008C000C0E00AEC4D4E4F78207B0070C2EAC0E0D9
:1008D00012094AD0F0D0E0200104C4C0E0C4B20143
:1008E000C0F01205DDD0F0D5F0EB02062D12059315
:1008F00006CD53083858069E4C069A42083C4F08CD
:10090000444408444906B343084A55077B4607D97F
:10091000450745470A025006A22D06A62E06C92BFA
:1009200006AA2306C72009ED2A000006C11000030D
:100930007541061205B9FC1205B9FD1205B9FE1282
:1009400005B9FF7837020212790AA2D520031430C4
:100950000509B910020404B9080104A2D520060251
:100960005001042002689202B540005034C0E07F7C
:10097000203003197F30A20272067205500F12094F
:10098000A1C202C206C205C2087F30800F30050333
:10099000E9C0E01205F4300503D0E0F9D0E0B5403D
:1009A000CC3005177F30B9100C1205F47F58300495
:1009B000077F788003B908031205F43002057F2D04
:1009C0000205F47F202008F87F2B2006F3229202F4
:1009D00080CF7F00B4070050052437F8E6FF2228B7
:1009E0006E756C6C29002D50434958D2011205B91F
:1009F0003001F8C201784030D504D2007841F602C7
:100A0000065E1205B92403B405004001E49009E62E
:100A1000931205E5743A1205E5D203754004020805
:010A2000389D
:10019900E9D2E7C933E833F892D5EDD2E7CD33ECAC
:0701A90033FC5002B2D52225
:1001B000EC30E7100FBF000C0EBE00080DBD0004B0
:1001C0000BEB6014A2D5EB13FCED92E7FD2274FF5C
:1001D000FCFDFEFF22E480F8A2D574FF13FC7D80B5
:0301E000E480EFC9
:1001E300F920E72824F950037907E4F42402FB18E3
:1001F300DBFDE624FB5014E9600DE4F618E604F693
:0F020300B40A08E4F6D9F57401F60A22C2D5222E
:10021200ED33EC3392D5FA602AB4FF33EDC2E77BBB
:10022200FF60067A027937E4227A02794020D50407
:100232007A02793B224E614E002B494E46002D49EF
:100242004E4600E47A08F608DAFC7B00740722E8DE
:10025200C0E0ECC0E0EDC0E0EEC0E0EFC0E0EA7567
:10026200F010A4CAABF075F04DA42BFBE435F0FC02
:10027200EA2410FAEB34C5FBEC34D9FCEDC2E7FFFB
:1002820075F056A4F42411C5F0F434C58FF0A42AF5
:10029200E5F03BE43CF620E7141204DDD0E0FFD0A9
:1002A200E0FED0E0FDD0E0FC1204108014F4041251
:1002B20004DDD0E0FFD0E0FED0E0FDD0E0FC120093
:1002C2001ED0E0F8E6FAEDD2E7CD33EC332482FB20
:1002D200E4C3CF33CFCE33CECD33CD33DBF37B0785
:1002E20075F00A846004F6081B0AE5F0F6088FF040
:1002F200740AA4FFACF08EF0740AA42CFEACF05089
:10030200010C8DF0740AA42CFDE435F0F608DBDE56
:030312007407224B
:100315000201CEE86480F8E933E83360110460F047
:10032500ED33EC337009E8FCE9FDEAFEEBFF22044E
:1003350060DED3EB9FEA9EE99DE8C2E78CF0C2F749
:1003450095F0400CE8CCF8E9CDF9EACEFAEBCFFB15
:1003550012019985D0F05804700320D5B3E80470D4
:10036500075002B2D50201D892D5EC0460F7E4CC6F
:10037500C0E0C398F8603B94186008400DD0E0FBDE
:100385000201B0E4FBFAC9FC8028E830E406E4C9C0
:10039500FBE4CAFCE830E305E4C9CACBFCE8540732
:1003A5006010F8C3E913F9EA13FAEB13FBEC13FC3D
:1003B500D8F130F52FC3E49CFCEF9BFFEE9AFEEDE0
:1003C50099FDD0E0FBEF4E4D4C701222DB0302018C
:1003D500D5EC2CFCEF33FFEE33FEED33FDED30E7CE
:1003E500EB0201B0EF2BFFEE3AFEED39FDD0E0FB5D
:1003F50050130BBB00030201D8ED13FDEE13FEEF06
:0804050013FFEC13FC0201B02F
:10040D000201D8EC5D046005E8590470030201CEC9
:10041D00120199580460F6EC4860F2EC7004FDFE90
:10042D00FF22C860DB2481C85009C39860025006C2
:10043D000201D59850CAF582E9294B4A7005AB8265
:10044D000201C475F0007C1A7880C3EF9BEE9AED23
:10045D0099400DC3EF9BFFEE9AFEED99FDE842F03A
:10046D00DC23ACF0D0E0FFD0E0FED0E0FDAB82208D
:10047D00E7101BEB60BAEC2CFCEF33FFEE33FEED17
:10048D0033FD0201B0E803F830E705C0F075F00068
:10049D00EF2FFFEE33FEED33FD40B830E7C280AAFB
:1004AD003F8000004120000042C80000447A000057
:1004BD00461C400047C35000497424004B189680D9
:1004CD004CBEBC205A0E1BCA6753C21C749DC5AED0
:1004DD00FB60065407601C232312050BEB54386098
:1004ED00091204F712050612001EECF8EDF9EEFAEA
:1004FD00EFCB22EB12050680F1543803241C900437
:10050D00ADFE93FC0EEE93FD0EEE930ECE93FF22F9
:0300000002000EED
:0C000E00787FE4F6D8FD758143020B0DED
:10051D00BB010689828A83E0225002E722BBFE02DC
:09052D00E32289828A83E493220F
:10053600BB010CE58229F582E5833AF583E022507A
:1005460006E92582F8E622BBFE06E92582F8E222C4
:0D055600E58229F582E5833AF583E49322DE
:10056300BB010689828A83F0225002F722BBFE0177
:02057300F32271
:0E057500C3E49FFFE49EFEE49DFDE49CFC2297
:10058300FAE6FB0808E6F925F0F618E6CA3AF62279
:10059300D083D082F8E4937012740193700DA3A3F7
:1005A30093F8740193F5828883E47374029368600B
:0605B300EFA3A3A380DF0B
:100C0200EF640A70057E0D120C12EFFE120C122216
:100C1200309811E599B4130CC2983098FDE599B457
:100C220011F6C2983099FDC299D29BEEA2D0790BEF
:100C3200E730E309540C929BB40802B29B8E9922CE
:00000001FF
