:0D049D000A253032425825303242580A00FC
:03003300020420A4
:10042000C0E0C0F0C083C082C0D075D000C000C0A2
:1004300001C002C003C004C005C006C0077BFF7A2C
:1004400004799D85DA0B85D90C120098D007D00667
:10045000D005D004D003D002D001D000D0D0D082BB
:07046000D083D0F0D0E032A0
:10046700E4759E82759D2D75985275EF9CF5D8D2CF
:10047700AFD2AE7FA47E0612048DA2B4B392B4D2DB
:06048700DC20DFEF80FB2A
:10048D00C3EE648094804007EF1F70F41E80F1224C
:030000000204AA4D
:0C04AA00787FE4F6D8FD7581210204671C
:10003600E517240BF8E60517227808300702780B37
:10004600E475F0011203EA0203922000EB7F2ED240
:10005600008018EF540F2490D43440D4FF30040BA2
:10006600EF24BFB41A0050032461FFE5186002159F
:1000760018051BE51B7002051A30070D7808E47594
:10008600F0011203EAEF0203D80200037403D20759
:100096008003E4C207F5178B088A09890AE4F51874
:1000A600F51AF51BE51860077F2012007180F575BB
:1000B60019FFC201C200C202C203C205C206C208BB
:1000C60012003FFF700D3007057F00120082AF1B44
:1000D600AE1A22B4255FC2D5C20412003FFF24D057
:1000E600B40A00501A75F00A781830D50508B6FF1C
:1000F6000106C6A426F620D5047002D20380D924B0
:10010600CFB41A00EF5004C2E5D204020282D20133
:1001160080C6D20080C0D20280BCD2D580BAD205B9
:1001260080B47F201200712002077401B5180040C8
:10013600F1120036FF1200710200AAD208D2068020
:1001460095120036FB120036FA120036F94A4B7049
:100156000679537A037BFF20022EE518602A7E007B
:100166008E827583001203AB60060EEE651970F081
:10017600C2D5EBC0E0EAC0E0E9C0E0EE1202C9D0A9
:10018600E0F9D0E0FAD0E0FB120392FF60AAEBC0E0
:10019600E0EAC0E0E9C0E0120071D0E02401F9D045
:1001A600E03400FAD0E0FBE5190460DCD519D9800B
:1001B600877BFF7A0279C5D202809C79108002790A
:1001C60008C206C2088008D2D5790A8004790AC214
:1001D600D5E519047002F519E4FAFDFEFF120036A2
:1001E600FC7B08200113120036FD7B1030000A123A
:1001F6000036FE120036FF7B20EC3382D592D550B6
:1002060013C3E43000069FFFE49EFEE42001039D35
:10021600FDE49CFCE4CBF8C201EC700CCFCECDCC57
:10022600E824F8F870F38017C3EF33FFEE33FEEDE2
:1002360033FDEC33FCEB33FB994002FB0FD8E9EBC3
:10024600300105F8D0E0C448B201C0E00AEC4D4EDA
:100256004F78207B0070C2EAB5190040BCC0E0129E
:1002660002CBD0F0D0E0200104C4C0E0C4B201C08B
:10027600F012005AD0F0D5F0EB0200AA1203FA01F0
:10028600475301C15801184C01144201C54F01CD15
:0F0296004401CD49012D4301D35501B74601B7AE
:1002A5004501B747037350011C2D01202E01432B37
:1002B50001242301412003612A00DC480000013BA1
:1002C5003F3F3F00790AA2D5200314300509B91034
:1002D500020404B9080104A2D52006025001042035
:1002E50002689202B518005034C0E07F203003192F
:1002F5007F30A20272067205500F120322C202C29B
:1003050006C205C2087F30800F300503E9C0E01240
:100315000071300503D0E0F9D0E0B518CC300517F1
:100325007F30B9100C1200717F583004077F788038
:1003350003B908031200713002057F2D0200717F99
:10034500202008F87F2B2006F322920280CF286E0A
:10035500756C6C29002D50434958D2011200363076
:1003650001F8C201781830D50108F60200DC120048
:10037500362403B405004001E490035A9312006249
:0D038500743A120062D2037518040201C11F
:10039200BB010689828A83E0225002E722BBFE0269
:0903A200E32289828A83E493229C
:1003AB00BB010CE58229F582E5833AF583E0225007
:1003BB0006E92582F8E622BBFE06E92582F8E22251
:0D03CB00E58229F582E5833AF583E493226B
:1003D800BB010689828A83F0225002F722BBFE0104
:0203E800F322FE
:1003EA00FAE6FB0808E6F925F0F618E6CA3AF62214
:1003FA00D083D082F8E4937012740193700DA3A392
:10040A0093F8740193F5828883E4737402936860A5
:06041A00EFA3A3A380DFA5
:10000300EFB40A07740D12000E740A309811A89900
:10001300B8130CC2983098FDA899C298B811F6305D
:0700230099FDC299F5992235
:00000001FF
