:060000000200600533322E
:1000600075CBFF75CAFB75CDFF75CCFB75985275C6
:10007000C834D2A8D288D2AF75318875E8A8753354
:1000800000C200C2001200CF1200B6200008E53204
:1000900012015B02009B120141C200740A12014767
:1000A000740D120147740A120135B2B43098D68526
:1000B0009933C29880CF1200ECE5311200FE200087
:1000C00005E5331200FE1200F5300002D2002205D1
:1000D000311200ECE5311200FE153120000512014D
:1000E0001BF5321200F5300002D20022D2EEC2001F
:1000F000C2EFC2ED22D2EEC2EFD2EDD2EF227530C6
:1001000008D2EEC2ED3392EFD2EDC2EDD530F6C299
:10011000EED2ED30EC02D200C2ED22753008C2EE14
:10012000C2EDD2EDC2EDA2EC33D530F6D2EED2EF75
:10013000D2EDC2ED22FA7B327C83DCFEDBFADAF60A
:10014000227445120147223099FDC299F599225433
:100150000FB40A0040022407243022C0E0C4314F0B
:0D0160003147D0E0C0E0314F3147D0E02200
:00000001FF
