:1000000075EF8075D70075FD1F75FA0875F90075D5
:10001000FC0F75FBFF90100053FDFBE493F5FA74A1
:100020002093F5FCA3E493F5F9742093F5FBA34327
:0F003000FD0453827FE5FAA2E392B4000080D969
:1010000007FF08C8098E0A510B0F0BC40C710D1293
:101010000DA70E2E0EA50F0D0F630FA60FD70FF500
:101020000FFF0FF50FD70FA60F630F0D0EA50E2E96
:101030000DA70D120C710BC40B0F0A51098E08C8B5
:1010400007FF0736067005AD04EF043A038D02EC86
:10105000025701D0015900F1009B005800270009F8
:101060000000000900270058009B00F1015901D041
:10107000025702EC038D043A04EF05AD0670073603
:1010800007FF08C8098E0A510B0F0BC40C710D1213
:101090000DA70E2E0EA50F0D0F630FA60FD70FF580
:0210A0000FFF40
:00000001FF
