:030000000200609B
:0E003B00D2B5C200A7F709B9500312008C32EB
:10006000759E82759D1275985275F83775A901D2E3
:10007000AF7940780074321200F808C2B588F7D220
:10008000002000FDE8B40AF2780080EEB2B49001DE
:10009000041200B87940E7FA740A1200D0740D1205
:1000A00000D0EA1200D809E7FAE9B450EB0200B038
:1000B00074321200F8794032C0E0C0F0E4F5F0E5A7
:1000C000F005F09360051200D080F4D0F0D0E0226B
:1000D0003099FDC299F59922C0E0C41200EC11D00C
:1000E000D0E0C0E01200EC11D0D0E022540FB40AEE
:1000F0000040022407243022FA7B327C83DCFEDBC2
:10010000FADAF6220A0A0D5F5F5F5F5F5F5F5F5F8B
:100110005F5F5F5F5F5F5F5F5F5F5F5F5F5F5F5FEF
:100120005F5F5F5F5F5F5F5F5F5F5F0A0D416E6193
:100130006C6F672044657669636573204D696372EF
:100140006F436F6E766572746572204144754338F3
:1001500033360A0D202020202020535049204D41C5
:10016000535445522044656D6F20526F7574696E0B
:10017000650A0D2020446174612053746F726564B8
:1001800020696E204D656D6F727920696E2048651B
:090190007820466F726D0A0D0023
:00000001FF
