:03000000020100FA
:10003300B2B49001BF120124E5DB120144E5DA12E8
:0A0043000144E5D9120144C2DF3286
:1001000075817F75CBFF75CAFB75CDFF75CCFB750F
:10011000985275C83475D4C875D245D2AED2AF7571
:10012000D12380FEC0E0C0F0E4F5F0E5F005F093E7
:10013000600512013C80F4D0F0D0E0223099FDC27D
:1001400099F59922C0E0C4120158313CD0E0C0E0DA
:10015000120158313CD0E022540FB40A004002246E
:1001600007243022C39430B40A00401BB41100406D
:10017000139407B41000400FB42A0040079420B431
:1001800010004003C374FFB3223098FDE599C29874
:1001900022C0F0C000C2983189F500316440F6C435
:1001A000F5F0E500313CC2983189F500316440F644
:1001B00045F0F5F0E500313CE5F0D000D0F0220A42
:0201C0000D0030
:00000001FF
