:1000500075CBFF75CAF975CDFF75CCF975985275DA
:10006000C834D2B5759C0175F831C2B57406F5F780
:1000700030FFFDC2FFD2B5000000C2B57402F5F733
:1000800030FFFDC2FF7400F5F730FFFDC2FF7400C2
:10009000F5F730FFFDC2FF7800E8F5F730FFFDC24D
:1000A000FF08B814F4D2B5000000C2B57403F5F728
:1000B00030FFFDC2FF7400F5F730FFFDC2FF740092
:1000C000F5F730FFFDC2FF7400F5F730FFFDC2FF0A
:1000D000E5F71200FAB413EF80FEC0E0C0F0E4F5DB
:1000E000F0E5F005F09360051200F280F4D0F0D056
:1000F000E0223099FDC299F59922C0E0C412010EA8
:1001000011F2D0E0C0E012010E11F2D0E022540F43
:10011000B40A0040022407243022C39430B40A00F9
:10012000401BB4110040139407B41000400FB42AD0
:100130000040079420B410004003C374FFB3223082
:1001400098FDE599C29822C0F0C000C298313FF5F1
:1001500000311A40F6C4F5F0E50011F2C298313FC3
:10016000F500311A40F645F0F5F0E50011F2E5F042
:05017000D000D0F022D8
:00000001FF
