:03000000020100FA
:10003300B2B49001B612011BE5DB12013BE5DA1203
:05004300013BC2DF32A9
:1001000075817F759E82759D1275985275D4C875DC
:10011000D245D2AED2AF75D12380FEC0E0C0F0E4AC
:10012000F5F0E5F005F093600512013380F4D0F0AE
:10013000D0E0223099FDC299F59922C0E0C41201A5
:100140004F3133D0E0C0E012014F3133D0E02254C0
:100150000FB40A0040022407243022C39430B40AAA
:1001600000401BB4110040139407B41000400FB4BA
:100170002A0040079420B410004003C374FFB32248
:100180003098FDE599C29822C0F0C000C298318035
:10019000F500315B40F6C4F5F0E5003133C298312B
:1001A00080F500315B40F645F0F5F0E5003133E5D0
:0901B000F0D000D0F0220A0D008D
:00000001FF
