:100B3E000A456E74657220737472696E67732074E1
:100B4E0065726D696E6174656420627920456E749C
:100B5E0065722E0A00253232730050617269747903
:100B6E00206F6666206572726F72005061726974D2
:100B7E0079206576656E206572726F7200506172B3
:100B8E00697479206F6464206572726F720032200E
:100B9E0053746F7020626974206572726F72000AEE
:100BAE00456E642E20507265737320726573657482
:100BBE0020746F20726573746172742E0A0048651A
:100BCE006C6C6F20576F726C6400000000000000A8
:0C0BDE000000000000000000000000000B
:10065A0078227C007D007BFF7A0B79CC7E007F1E9E
:10066A00120A03E4FFFE120D2C7F077D2D7C8612F1
:10067A000BEA7BFF7A0B793E120065120D1EBF0250
:10068A00FA7F017E00120D2C7F127DCA7CFF120BAD
:10069A00EA7544007545007546287BFF7A0B796335
:1006AA001203D4E50930E722E4FFFE120D2C30993B
:1006BA00FD7F057E00120CD37F067D947CFF120B12
:1006CA00EA7BFF7A0B7968120CA975400774222518
:1006DA0040F8E660070540E540B416F1AF40054032
:1006EA0074222FF87620E5097804A2E713D8FB5480
:1006FA000F2430FFAE40054074222EF8A607E50904
:10070A00540F2430FFAE40054074222EF8A607AFDE
:10071A0040054074222FF8760AAF40054074222F14
:10072A00F8E4F6FB7A007922120CA9E4FFFE120D16
:10073A002C7F0E7D947CFF120BEA754400754500F0
:10074A007546287BFF7A0B79631203D4120D1EEFCC
:10075A003395E0EF30E7233099FD7F057E00120CD8
:10076A00D37F017E00120D2C7F167DCA7CFF120BEF
:10077A00EA7BFF7A0B7979120CA975400774222556
:10078A0040F8E660070540E540B416F1AF40054081
:10079A0074222FF87620E5097804A2E713D8FB54CF
:1007AA000F2430FFAE40054074222EF8A607E50953
:1007BA00540F2430FFAE40054074222EF8A607AF2E
:1007CA0040054074222FF8760AAF40054074222F64
:1007DA00F8E4F6FB7A007922120CA97F017E001256
:1007EA000D2C7F197DCA7CFF120BEA7544007545F2
:1007FA00007546287BFF7A0B79631203D4120D1E0B
:10080A00EF3395E0EF30E7233099FD7F057E001244
:10081A000CD37F037E00120D2C7F367DF37CFF12F2
:10082A000BEA7BFF7A0B798B120CA97540077422AD
:10083A002540F8E660070540E540B416F1AF4005EB
:10084A004074222FF87620E5097804A2E713D8FB32
:10085A00540F2430FFAE40054074222EF8A607E557
:10086A0009540F2430FFAE40054074222EF8A60723
:10087A00AF40054074222FF8760AAF400540742233
:10088A002FF8E4F6FB7A007922120CA97F027E0087
:10089A00120D2C7F267DE57CFF120BEA754400754C
:0408AA00450075464A
:1008AE00287BFF7A0B79631203D4E50930E7097BC5
:1008BE00FF7A0B799C120CA975400774222540F81B
:1008CE00E660070540E540B416F1AF4005407422DE
:1008DE002FF87620E5097804A2E713D8FB540F24ED
:1008EE0030FFAE40054074222EF8A607E509540FDE
:1008FE002430FFAE40054074222EF8A607AF400507
:10090E004074222FF8760AAF40054074222FF8E487
:10091E00F6FB7A007922120CA97BFF7A0B79AD12C5
:05092E00006580FE22BF
:100BEA00EFC2E7FF7909F754037009759E0053C8ED
:100BFA00CF5398EFB401028018B4020C8CCB8DCA83
:100C0A00759E0075C834801C8D9D8C9E439E808085
:100C1A00134387805389CF43892053C8CF759E00D9
:100C2A008D8DD28EEF540C75985060037598D0D282
:040C3A0099E7FF2215
:0E0D1E00E5095480A29892E0A29992E1FF228A
:100CD300EF7004EE601D1EE5D754070404838008FB
:100CE3008040201008040201FD7C2ADCFEDDFADFCF
:060CF300F780E07F012202
:0C0D2C00EF5407FFE5D754F84FF5D7222D
:03000000020D38B6
:0C0D3800787FE4F6D8FD75815A02065A57
:10093300E709F608DFFA8046E709F208DFFA803EA6
:1009430088828C83E709F0A3DFFA8032E309F60893
:10095300DFFA8078E309F208DFFA807088828C83FB
:10096300E309F0A3DFFA806489828A83E0A3F608AF
:10097300DFFA805889828A83E0A3F208DFFA804C89
:1009830080D280FA80C680D4806980F28033801060
:1009930080A680EA809A80A880DA80E280CA8033C9
:1009A30089828A83ECFAE493A3C8C582C8CCC58341
:1009B300CCF0A3C8C582C8CCC583CCDFE9DEE78011
:1009C3000D89828A83E493A3F608DFF9ECFAA9F090
:1009D300EDFB2289828A83ECFAE0A3C8C582C8CCE6
:1009E300C583CCF0A3C8C582C8CCC583CCDFEADEFF
:1009F300E880DB89828A83E493A3F208DFF980CC61
:100A030088F0ED2402B4040050C2F582EB2402B452
:100A1300040050B823234582F582EF4E60AEEF60A9
:090A2300010EE5822390098373A2
:10000300E5502444F8E6055022784130070278444D
:10001300E475F001120AD4020A2C2000EB7F2ED2E1
:10002300008018EF540F2490D43440D4FF30040BD5
:10003300EF24BFB41A0050032461FFE55160021599
:10004300510554E5547002055330070D7841E475AA
:10005300F001120AD4EF020A72020C3E7403D207B3
:100063008003E4C207F5508B418A428943E4F5518A
:10007300F553F554E55160077F2012003E80F5F5F6
:1000830052C201C200C202C203C205C206C20812A2
:10009300000CFF700D3007057F0012004FAF54AE08
:1000A3005322B42561C2D5C20412000CFF24D0B47C
:1000B3000A00501C75F00A20D50DC551A42551F531
:1000C300517002D20380E0C552A42552F55280D765
:1000D30024CFB41A00EF5004C2E5D204020248D27E
:1000E3000180C4D20080BED20280BAD2D580B8D2F9
:1000F3000580B27F2012003E2002077401B5510033
:1001030040F1120003FF12003E020077D208D2062C
:100113008093120003FB120003FA120003F94A4B07
:10012300700679167A037BFF200233E551602FAF07
:1001330052BF00011F7E008E82758300120A456044
:10014300050EEE6F70F1C2D5EBC0E0EAC0E0E9C086
:10015300E0EE12028CD0E0F9D0E0FAD0E0FB120A14
:100163002CFF60A5EBC0E0EAC0E0E9C0E012003E6E
:10017300D0E02401F9D0E03400FAD0E0FBE552608E
:10018300DDD552DA80837BFF7A027988D2028098A8
:10019300791080027908C206C2088008D2D5790A8C
:1001A3008004790AC2D5E4FAFDFEFF120003FC7B4A
:1001B30008200113120003FD7B1030000A12000314
:1001C300FE120003FF7B20EC3382D592D55013C37C
:1001D300E43000069FFFE49EFEE42001039DFDE45E
:1001E3009CFCE4CBF8C201EC700CCFCECDCCE82460
:1001F300F8F870F38017C3EF33FFEE33FEED33FDF2
:10020300EC33FCEB33FB994002FB0FD8E9EB3001F5
:1002130005F8D0E0C448B201C0E00AEC4D4E4F7877
:10022300207B0070C2EAC0E012028ED0F0D0E02042
:100233000104C4C0E0C4B201C0F0120027D0F0D55D
:10024300F0EB020077120AF401155301935800E60C
:100253004C00E24201974F019F44019F4900FB4339
:1002630001A5550189460189450189470339500094
:10027300EA2D00EE2E01112B00F223010F2003249F
:100283002A000001093F3F3F00790AA2D520031449
:10029300300509B910020404B9080104A2D52006E7
:0902A300025001042002689202DD
:1002AC00B551005034C0E07F203003197F30A202DA
:1002BC0072067205500F1202E5C202C206C205C2D6
:1002CC00087F30800F300503E9C0E012003E300596
:1002DC0003D0E0F9D0E0B551CC3005177F30B91020
:1002EC000C12003E7F583004077F788003B9080356
:1002FC0012003E3002057F2D02003E7F202008F8C0
:10030C007F2B2006F322920280CF286E756C6C290D
:10031C00002D50434958D2011200033001F8C2019C
:10032C00785130D504D2007852F60200A81200039E
:10033C002403B405004001E490031D9312002F74B4
:0C034C003A12002FD203755104020193F5
:100CA900120A2C601CFF09E970010AC0E0EAC0E0E1
:100CB900EBC0E0120C3ED0E0FBD0E0FAD0E0F980C6
:0A0CC900DF7F0A120C3EE4FEFF225A
:10035800E55630030104F823282444F82278413074
:1003680003027844E475F001120AD4020A2C60EC06
:10037800C55A7002155914C55A200304FF020D44CA
:10038800784174FFF5F0020AE4FF020CF9E55760C2
:1003980006D557037F0022055AE55A7002055920F1
:1003A8000303020D0D7841120ACB120A2CFF60AC30
:1003B8007841E475F001020AD412039FEFC0E012FD
:1003C8000391D0E040F380A6D2038002C2038B41A0
:1003D8008A428943E4F558F556F559F55A75570098
:1003E800C202C200C201C204120365FF7005AF5801
:1003F8007E0022B42530120365FF24D0B40A0050D1
:100408000C75F00AC557A42557F55780E924CFB4D1
:100418001A00EF5002C2E5020626D20180D8D200A7
:1004280080D4D20480D0EF12039150051203C1800A
:10043800ACEFC0E012039FD0E06F60A1EF606E12D6
:10044800037680AA7401C5576002F55712039FEF1F
:10045800605B20040E120358E475F001120AD4EF11
:10046800120A72D557E62004040556055880C012B2
:100478000395EFC0E0120391D0E05004120376E434
:10048800FF20040E120358E475F001120AD4EF128B
:100498000A72EF70DA200404055605588091E55772
:1004A800600205571203C1120395EF70C6300304AA
:1004B800E4120376E55860030203F67EFF7FFF220D
:1004C80020041174FFFCFDFEFF120358120ACB1220
:1004D8000AB105560203E5D0E080D27900800A7996
:1004E80010800679088002790AD205E5576002056E
:1004F80057E9C0E01203C1EF60DD12039FBF2D046E
:10050800D2028003BF2B081203C160CB12039FD015
:10051800E0B40A02802FB40802802ABF3023700298
:100528007408C205120395BF78028003BF581605E8
:1005380057D557028007D55704D205800B74108011
:10054800187002740ABF000AEFF8E4FCFDFEFF020F
:1005580005D9C0E0120376D0E0F9E4FCFDFEFFE91E
:10056800C0E0ECC0E0EDC0E0EEC0E0EFC0E0120398
:1005780095EFF8D0E0FFD0E0FED0E0FDD0E0FCD071
:10058800F0E8604DB461004007B47B005002C2E55A
:1005980024D0503DFA24F6500724F95034240AFA9E
:1005A800EAB5F000502BCFA9F0A42FFF92D5E9C5EA
:1005B800F0CEA4A2D53EFE92D5E9C5F0CDA4A2D531
:1005C8003DFD92D5E9C5F0CCA4A2D53CFCC205807E
:1005D8008EE8C0E020042A200508055830020312DE
:1005E8000AA3120358120ACB055620000B20010D4E
:1005F800EE8FF0120A848009120AB18004EF120A01
:1006080072D0E01203760203E52004101203581298
:020618000ACB0B
:10061A000556E559855AF0120A8480E8120AF4044C
:10062A00A65304E75804264C04224204224804EB49
:10063A004F04EF44044C4304E34904EF5504C8460D
:10064A0004C84504C847042A2A06114E0000042E8D
:100A2C00BB010689828A83E0225002E722BBFE02C8
:090A3C00E32289828A83E49322FB
:100A4500BB010CE58229F582E5833AF583E0225066
:100A550006E92582F8E622BBFE06E92582F8E222B0
:0D0A6500E58229F582E5833AF583E49322CA
:100A7200BB010689828A83F0225002F722BBFE0163
:020A8200F3225D
:100A8400BB010A89828A83F0E5F0A3F0225006F7BD
:0F0A940009A7F01922BBFE06F3E5F009F31922BA
:0E0AA300C3E49FFFE49EFEE49DFDE49CFC2264
:100AB100BB010789828A83020B265005E9F8020BE4
:0A0AC1001ABBFE05E9F8020B322211
:090ACB00E6FB08E6FA08E6F92250
:100AD400FAE6FB0808E6F925F0F618E6CA3AF62223
:100AE400FAE6FB0808E625F0F9F618E63AFAF622E3
:100AF400D083D082F8E4937012740193700DA3A391
:100B040093F8740193F5828883E4737402936860A4
:060B1400EFA3A3A380DFA4
:100D0D0010090B120C7EBF0D027F0A020C3EAF0ABA
:010D1D0022B3
:050D44008F0AD2092214
:100CF900EFC394094006EFC3940E4003BF2003D30A
:040D09008001C32280
:100C3E00EF640A70057E0D120C4EEFFE120C4E2262
:100C4E00309811E599B4130CC2983098FDE599B41B
:100C5E0011F6C2983099FDC299D29BEEA2D07909B5
:100C6E00E730E309540C929BB40802B29B8E992292
:0C0B1A00ECF608EDF608EEF608EFF62207
:0C0B2600ECF0A3EDF0A3EEF0A3EFF02242
:0C0B3200ECF208EDF208EEF208EFF222FF
:100C7E003098FDAF99C2987909E7540C20E30530FE
:100C8E009A148016B40C05EFA2D08004EFA2D0B354
:0B0C9E00209A01B34004E74480F722D5
:00000001FF
