:03000000020100FA
:10003300B2B4900200120165E5DB120185E5DA1224
:0A0043000185E5D9120185C2DF3204
:1001000075817F759E82759D1275985275D4C875DC
:10011000D245D2AED2AFC2DF75D123C2983098FD9E
:10012000C2AF75D121E599B4300512013780E5B42D
:1001300031E212014E80DD900203120165C2DF75CB
:10014000D12230DFFDC2DF9002071201652290024A
:1001500005120165C2DF75D12330DFFDC2DF9002D9
:100160000712016522C0E0C0F0E4F5F0E5F005F00B
:1001700093600512017D80F4D0F0D0E0223099FD2B
:10018000C299F59922C0E0C4120199317DD0E0C036
:10019000E0120199317DD0E022540FB40A004002F0
:1001A0002407243022C39430B40A00401BB4110049
:1001B00040139407B41000400FB42A004007942065
:1001C000B410004003C374FFB3223098FDE599C218
:1001D0009822C0F0C000C29831CAF50031A540F69F
:1001E000C4F5F0E500317DC29831CAF50031A54073
:1001F000F645F0F5F0E500317DE5F0D000D0F022D5
:090200000A0D005A0047007800C5
:00000001FF
