:03000300020043B5
:0D004300C0E0C083C082C0D075D000C007EF
:1000500075D12230DFFDC2DFAFDA900000E4F0A3FB
:10006000EFF0AFDBA3E4F0A3EFF00509E5097002C0
:02007000050881
:0B007200D007D0D0D082D083D0E03285
:1000060075D12075D247D288D2AFD2A8E4F508F5CB
:100016000963B010E4FFFEE4FDFCD3ED9509E508A5
:100026006480F8EC64809850070DBD00010C80EAEE
:0D0036000FBF00010EBE03DFBFE8DC80D469
:0300000002007D7E
:0C007D00787FE4F6D8FD758109020006CA
:00000001FF
