:08138F00252B2E3266430A00F3
:0C137800040800000000040C000000004D
:0A138500759E83759D127598522223
:1012220012138575D22275D44575D12475D12575D1
:10123200D22275D50175E64A75D12230DFFDAFDBCA
:10124200E4FCFDFEFBFA7901F8120D20A804A905C1
:10125200AA06AB07AFDAEFFEE4FCFD2BFBEA3EFA8F
:10126200ED39F9EC38F8AFD9E4FEEB2FF50BEE3A95
:10127200F50AED39F509EC38F508AF0BAE0AAD0900
:10128200FC120A9E7B9A7AD979E678431208F87B97
:10129200FF7AFF797F784B120A017BC37AD5798175
:1012A20078C31208078F0F8E0E8D0D8C0CC2DF7B58
:1012B200FF7A13798F8F288E278D268C25120E1593
:0312C200021237DE
:10080000020B11E86480F8E933E83360110460F00A
:10081000ED33EC337009E8FCE9FDEAFEEBFF22045E
:1008200060DED3EB9FEA9EE99DE8C2E78CF0C2F759
:1008300095F0400CE8CCF8E9CDF9EACEFAEBCFFB25
:10084000120ADC85D0F05804700320D5B3E8047098
:10085000075002B2D5020B1B92D5EC0460F7E4CC32
:10086000C0E0C398F8603B94186008400DD0E0FBEE
:10087000020AF3E4FBFAC9FC8028E830E406E4C984
:10088000FBE4CAFCE830E305E4C9CACBFCE8540742
:100890006010F8C3E913F9EA13FAEB13FBEC13FC4D
:1008A000D8F130F52FC3E49CFCEF9BFFEE9AFEEDF0
:1008B00099FDD0E0FBEF4E4D4C701222DB03020B92
:1008C00018EC2CFCEF33FFEE33FEED33FDED30E79B
:1008D000EB020AF3EF2BFFEE3AFEED39FDD0E0FB21
:1008E00050130BBB0003020B1BED13FDEE13FEEFC9
:0808F00013FFEC13FC020AF3F4
:1008F800EC4D6011E8497017ED33EC3304600DE4FA
:10090800FCFFFEFD22E933E8330470F8020B1112F4
:100918000ADC58046009E4CC2481500628500902F6
:100928000B1B284003020B18C0E0EB4A7044B98047
:1009380006D0E0FB020B07EF4E701CBD8008EBFFF2
:10094800EAFEE9FD80EBE98DF0A4FEE5F00209E19D
:10095800E9CDF9EAFEEBFFEF89F0A4FCE5F0CE89DA
:10096800F0A42EFFE435F0CD89F0A42DFEE435F097
:100978008067EF4E7005BD80D780C3EF8BF0A4ACC5
:10098800F0EE8BF0A42CFCE435F0F8EF8AF0A42C00
:10099800E5F038FCE433CB8DF0A42CFCE5F03BF813
:1009A800EE8AF0A42CFCE5F038F8E433CF89F0A403
:1009B8002CFCE5F038CF3400CE89F0A42FFFE5F009
:1009C8003EFEE433C98DF0A42EFEE5F039CD8AF061
:1009D800A42FFFE5F03EFEE43DFD33D0E0FB5007D9
:1009E8000BBB000F020B1BEC2CFCEF33FFEE33FEAE
:0609F800ED33FD020AF3DD
:1009FE00020B1BEC5D046005E859047003020B1139
:100A0E00120ADC580460F6EC4860F2EC7004FDFE4D
:100A1E00FF22C860DB2481C85009C39860025006CB
:100A2E00020B189850CAF582E9294B4A7005AB8221
:100A3E00020B0775F0007C1A7880C3EF9BEE9AEDDF
:100A4E0099400DC3EF9BFFEE9AFEED99FDE842F043
:100A5E00DC23ACF0D0E0FFD0E0FED0E0FDAB822096
:100A6E00E7101BEB60BAEC2CFCEF33FFEE33FEED20
:100A7E0033FD020AF3E803F830E705C0F075F00025
:100A8E00EF2FFFEE33FEED33FD40B830E7C280AA04
:100A9E0075F020800E75F010800575F0087D007ED3
:100AAE00007F003392D530D503120D6FEC3340101A
:100ABE00EF33FFEE33FEED33FDEC33FCD5F0ED22DC
:0E0ACE00E5F0247EA2D513CC92E7CDCEFF2218
:100DB300E5392425F8E6053922782230070278251B
:100DC300E475F001120D7D020CC82000EB7F2ED2DA
:100DD300008018EF540F2490D43440D4FF30040B18
:100DE300EF24BFB41A0050032461FFE53A600215F3
:100DF3003A053DE53D7002053C30070D7822E47568
:100E0300F001120D7DEF020D0E0213517403D20790
:100E13008003E4C207F5398B228A238924E4F53A57
:100E2300F53CF53DE53A60077F20120DEE80F57540
:100E33003BFFC201C200C202C203C205C206C2080E
:100E4300120DBCFF700D3007057F00120DFFAF3D83
:100E5300AE3C22B4255FC2D5C204120DBCFF24D020
:100E6300B40A00501A75F00A783A30D50508B6FF6F
:100E73000106C6A426F620D5047002D20380D92425
:100E8300CFB41A00EF5004C2E5D2040210ECD20131
:100E930080C6D20080C0D20280BCD2D580BAD2052F
:100EA30080B47F20120DEE2002077401B53A004092
:100EB300F1120DB3FF120DEE020E27D208D20680F7
:100EC30095120DB3FB120DB3FA120DB3F94A4B7021
:100ED3000679E37A117BFF20022EE53A602A7E0031
:100EE3008E82758300120CE160060EEE653B70F096
:100EF300C2D5EBC0E0EAC0E0E9C0E0EE12114CD08D
:100F0300E0F9D0E0FAD0E0FB120CC8FF60AAEBC016
:100F1300E0EAC0E0E9C0E0120DEED0E02401F9D030
:100F2300E03400FAD0E0FBE53B0460DCD53BD9803C
:100F330087D20280A212112F60F7E53B70010412E1
:100F43000B26A93B600DE53B600914F53B1211D656
:100F5300EF60F3EA30E702F404C3995077EAF4252B
:100F63003B0430E701E404F53B800D12112F60C10F
:100F7300EA053B253B120B26EA7838F630E701E415
:100F8300253B04D53B042005011412114CE4C0E0B9
:100F93001211D67838E6601320E70714F6120DD63F
:100FA300802204F6D0E014C0E07F00120DD6E53BAA
:100FB3006007120DCD153B800B300503120DCDD00C
:100FC300E0020E27D0E00480C512112F60A0E53B9C
:100FD30004120B267838EAF6E53B2005026001048B
:050FE300240412114C72
:100FE80074FF04C0E01211D6120DD6E53B200502AD
:100FF8006003120DCDD0E0B53BE87F45120DE078D7
:1010080038E67F2B30E7047F2DF404C0E0120DEEA4
:10101800D0E075F00A84C0F0120DD7D0E0120DD7D9
:10102800020E27791080027908C206C2088008D209
:10103800D5790A8004790AC2D5E53B047002F53BEC
:10104800E4FAFDFEFF120DB3FC7B08200113120D1C
:10105800B3FD7B1030000A120DB3FE120DB3FF7BF7
:1010680020EC3382D592D55013C3E43000069FFF9D
:10107800E49EFEE42001039DFDE49CFCE4CBF8C261
:1010880001EC700CCFCECDCCE824F8F870F38017C3
:10109800C3EF33FFEE33FEED33FDEC33FCEB33FBF4
:1010A800994002FB0FD8E9EB300105F8D0E0C448BD
:1010B800B201C0E00AEC4D4E4F78207B0070C2EAC6
:1010C800B53B0040BCC0E012114ED0F0D0E020018A
:1010D80004C4C0E0C4B201C0F0120DD7D0F0D5F0FE
:1010E800EB020E27120D8D0EC453102B580E954C83
:1010F8000E9142102F4F1037441037490EAA431053
:101108003D550F6E460FCC450F38471203500E99C8
:101118002D0E9D2E0EC02B0EA1230EBE2011EC2AE3
:101128000E594800000EB8E53BB4FF03753B0612A4
:101138000DB3FC120DB3FD120DB3FE120DB3FF7803
:1011480031020B55790AA2D5200314300509B910CC
:10115800020404B9080104A2D520060250010420A3
:1011680002689202B53A005034C0E07F203003197B
:101178007F30A20272067205500F1211A5C202C278
:1011880006C205C2087F30800F300503E9C0E012AF
:101198000DEE300503D0E0F9D0E0B53ACC300517B4
:1011A8007F30B9100C120DEE7F583004077F78801D
:1011B80003B90803120DEE3002057F2D020DEE7FF4
:1011C800202008F87F2B2006F322920280CF7F0090
:1011D800B4070050052431F8E6FF22286E756C6CC0
:1011E8002900D201120DB33001F8C201783A30D586
:1011F8000108F6020E592D50434958120DB3240325
:10120800B405004001E49011FE93120DDF743A1208
:0A1218000DDFD203753A0402102B1B
:100ADC00E9D2E7C933E833F892D5EDD2E7CD33EC60
:070AEC0033FC5002B2D522D9
:100AF300EC30E7100FBF000C0EBE00080DBD000464
:100B03000BEB6014A2D5EB13FCED92E7FD2274FF0F
:100B1300FCFDFEFF22E480F8A2D574FF13FC7D8068
:030B2300E480EF7C
:100B2600F920E72824F950037907E4F42402FB1896
:100B3600DBFDE624FB5014E9600DE4F618E604F646
:0F0B4600B40A08E4F6D9F57401F60A22C2D522E2
:100B5500ED33EC3392D5FA602AB4FF33EDC2E77B6F
:100B6500FF60067A0B797AE4227A0B798320D50423
:100B75007A0B797E224E614E002B494E46002D4957
:100B85004E4600E47A08F608DAFC7B00740722E892
:100B9500C0E0ECC0E0EDC0E0EEC0E0EFC0E0EA751B
:100BA500F010A4CAABF075F04DA42BFBE435F0FCB6
:100BB500EA2410FAEB34C5FBEC34D9FCEDC2E7FFAF
:100BC50075F056A4F42411C5F0F434C58FF0A42AA9
:100BD500E5F03BE43CF620E714120C88D0E0FFD0AA
:100BE500E0FED0E0FDD0E0FC120A018014F404120E
:100BF5000C88D0E0FFD0E0FED0E0FDD0E0FC12088C
:100C0500F8D0E0F8E6FAEDD2E7CD33EC332482FBF9
:100C1500E4C3CF33CFCE33CECD33CD33DBF37B0738
:100C250075F00A846004F6081B0AE5F0F6088FF0F3
:100C3500740AA4FFACF08EF0740AA42CFEACF0503C
:100C4500010C8DF0740AA42CFDE435F0F608DBDE0A
:030C5500740722FF
:100C58003F8000004120000042C80000447A0000A4
:100C6800461C400047C35000497424004B18968026
:100C78004CBEBC205A0E1BCA6753C21C749DC5AE1D
:100C8800FB60065407601C2323120CB6EB54386033
:100C980009120CA2120CB11208F8ECF8EDF9EEFAF0
:100CA800EFCB22EB120CB180F1543803241C900CCA
:100CB80058FE93FC0EEE93FD0EEE930ECE93FF229C
:030000000212C524
:0C12C500787FE4F6D8FD75813D02130C23
:100CC800BB010689828A83E0225002E722BBFE022A
:090CD800E32289828A83E493225D
:100CE100BB010CE58229F582E5833AF583E02250C8
:100CF10006E92582F8E622BBFE06E92582F8E22212
:0D0D0100E58229F582E5833AF583E493222B
:100D0E00BB010689828A83F0225002F722BBFE01C4
:020D1E00F322BE
:100D2000E88FF0A4CC8BF0A42CFCE98EF0A42CFC72
:100D30008AF0EDA42CFCEA8EF0A4CDA8F08BF0A4F0
:100D40002DCC3825F0FDE98FF0A42CCD35F0FCEB4F
:100D50008EF0A4FEA9F0EB8FF0A4CFC5F02ECD3914
:0F0D6000FEE43CFCEAA42DCE35F0FDE43CFC2281
:0E0D6F00C3E49FFFE49EFEE49DFDE49CFC2295
:100D7D00FAE6FB0808E6F925F0F618E6CA3AF62277
:100D8D00D083D082F8E4937012740193700DA3A3F5
:100D9D0093F8740193F5828883E473740293686009
:060DAD00EFA3A3A380DF09
:10135100EFB40A07740D12135C740A309811A8993E
:10136100B8130CC2983098FDA899C298B811F630FC
:0713710099FDC299F59922D4
:1012D100021222E493A3F8E493A34003F68001F2FF
:1012E10008DFF48029E493A3F85407240CC8C3331E
:1012F100C4540F4420C8834004F456800146F6DFED
:10130100E4800B0102040810204080901378E47EF1
:10131100019360BCA3FF543F30E509541FFEE493E1
:10132100A360010ECF54C025E060A840B8E493A3A8
:10133100FAE493A3F8E493A3C8C582C8CAC583CAD3
:10134100F0A3C8C582C8CAC583CADFE9DEE780BE8B
:011384000068
:00000001FF
