:030000000200609B
:10006000759E82759D12759852B2B49000EB120085
:100070009F78007908740A1200B7740D1200B779DE
:100080000874201200B7E81200BF08B47F03020012
:100090009819E9B400EB80DD74321200DF80CAC029
:1000A000E0C0F0E4F5F0E5F005F09360051200B76C
:1000B00080F4D0F0D0E0223099FDC299F59922C0A9
:1000C000E0C41200D311B7D0E0C0E01200D311B7E2
:1000D000D0E022540FB40A0040022407243022FA50
:1000E0007B327C83DCFEDBFADAF6220A0A0D5F5FE4
:1000F0005F5F5F5F5F5F5F5F5F5F5F5F5F5F5F5F10
:100100005F5F5F5F5F5F5F5F5F5F5F5F5F5F5F5FFF
:100110005F5F0A0D416E616C6F67204465766963AD
:100120006573204D6963726F436F6E766572746597
:100130007220414475433833340A0D20202020209A
:1001400020202020554152542044656D6F20526F6D
:100150007574696E650A0D20205472616E736D6945
:100160007373696F6E206F662044617461206672DC
:0D0170006F6D203020746F2037460A0D009F
:00000001FF
