:1006A900202020202020202B30202B31202B3220ED
:1006B9002B33202B34202B35202B36202B37202B86
:1006C90038202B39202B41202B42202B43202B442F
:1006D900202B45202B460A00253034502025303266
:1006E90042582025303242582025303242582025A0
:1006F90030324258200025303242582025303242CB
:1007090058202530324258202530324258200025C1
:100719003032425820253032425820253032425852
:100729002025303242580A000A006C6F6F700A00A7
:1007390044756D70205852414D2073737373202D89
:1007490020656565650944203078737373732030BB
:1007590078656565653A0A00444D41206F70657298
:100769006174696F6E20436F6E74696E756F75730E
:1007790020436F6E76657273696F6E7320444D41C5
:10078900204C4F4F50094D0A0054494D45523220D3
:10079900444D41204F7065726174696F6E094E0A4C
:1007A9000045787465726E616C205472696767657B
:1007B90072204F7065726174696F6E20300A002073
:1007C90020200A0A00436865636B2050726F6772C4
:1007D900616D202D2054797065203F20666F72204D
:1007E90068656C700A00436D643E002563002578D6
:1007F90020257800556E6B6E6F776E20636F6D6D77
:10080900616E6420307825303242582D2048697451
:0E081900203F20666F722068656C700A0A002E
:080CE100020A000002080000F5
:03003300020CCDEF
:0A0CCD0075EF00750800750901328B
:100C9A00E4F5D7F508F509759852759E85759D2D69
:010CAA002227
:080827008E278F288C298D2AF1
:10082F007BFF7A0679A912009875280085272B85FA
:10083F00282CD3E52C952AE52B9529400302096135
:10084F00753001852B31852C32852C82852B83E0E9
:10085F00F533A3E0F534852C82852B83A3A3E0F534
:10086F0035852C82852B83A3A3A3E0F5367BFF7AF6
:10087F000679E11200987BFF7A0679FFE52C2404B4
:10088F00F582E4352BF583E0F530E52C2405F58270
:10089F00E4352BF583E0F531E52C2406F582E435BC
:1008AF002BF583E0F532E52C2407F582E4352BF5A3
:1008BF0083E0F5331200987BFF7A0679FFE52C244D
:1008CF0008F582E4352BF583E0F530E52C2409F5A6
:1008DF0082E4352BF583E0F531E52C240AF582E42B
:1008EF00352BF583E0F532E52C240BF582E4352B1F
:1008FF00F583E0F5331200987BFF7A077918E52C22
:10090F00240CF582E4352BF583E0F530E52C240D2E
:10091F00F582E4352BF583E0F531E52C240EF582D5
:10092F00E4352BF583E0F532E52C240FF582E43521
:10093F002BF583E0F533120098309808120CABEFCB
:10094F006403600E7410252CF52CE4352BF52B0267
:0B095F0008417BFF7A07793102009805
:090BBD00E4F5EFF5D2F5D3F5D40F
:100BC600E4FFFED3EF94FDEE947F50118F828E8367
:100BD600E4F0A3F074022FFFE43EFE80E67582FE89
:090BE60075837F74F0F0A3E4F0C4
:010BEF0022E3
:100C6600120BBD75D84075EFA4D2AFD2AED2DDE57A
:100C7600094508700B7BFF7A07793312009880EFDD
:010C8600224B
:10000300E4120BC075CAF675CBFF75CCF675CDFF40
:1000130075D84075EFA6D2AFD2AED2CAE50945086E
:0E002300700B7BFF7A07793312009880EF2272
:100C4400120BBD75D84075EFA4D2AFD2AE63EF01DD
:100C5400E5094508700B7BFF7A0779331200988009
:020C6400EF227D
:100BF0007BFF7A0779391200987BFF7A07796112B7
:100C000000987BFF7A0779921200987BFF7A077928
:0D0C1000AA1200987BFF7A07793102009844
:100A7C00120C9A7BFF7A0779C81200987BFF7A07D1
:100A8C0079CE120098E4F508F5097BFF7A0779EF27
:100A9C00120098752A00752B00752C227BFF7A07A3
:100AAC0079F4120414AF22120CBC8F22E522644498
:100ABC0060097BFF7A077931120098E52224C16026
:100ACC003624F2603714603914603C240B703E7588
:100ADC002A00752B00752C23752D00752E00752F93
:100AEC00257BFF7A0779F7120414AD26AC25AF24C9
:100AFC00AE23120827808E120BF08089120C6680B0
:100B0C0084120003020A91120C44020A91E5226439
:100B1C000D7003020A917BFF7A0779FD8522301252
:050B2C000098020A918F
:03000000020B31BF
:0C0B3100787FE4F6D8FD758140020B7857
:10003600E53C2430F8E6053C22782D30070278307E
:10004600E475F001120A1202096A2000EB7F2ED233
:10005600008018EF540F2490D43440D4FF30040BA2
:10006600EF24BFB41A0050032461FFE53D6002157A
:100076003D0540E5407002053F30070D782DE475DB
:10008600F001120A12EF0209B0020C1D7403D20726
:100096008003E4C207F53C8B2D8A2E892FE4F53DBB
:1000A600F53FF540E53D60077F2012007180F5754C
:1000B6003EFFC201C200C202C203C205C206C20896
:1000C60012003FFF700D3007057F00120082AF401F
:1000D600AE3F22B4255FC2D5C20412003FFF24D032
:1000E600B40A00501A75F00A783D30D50508B6FFF7
:1000F6000106C6A426F620D5047002D20380D924B0
:10010600CFB41A00EF5004C2E5D204020282D20133
:1001160080C6D20080C0D20280BCD2D580BAD205B9
:1001260080B47F201200712002077401B53D0040A3
:10013600F1120036FF1200710200AAD208D2068020
:1001460095120036FB120036FA120036F94A4B7049
:100156000679537A037BFF20022EE53D602A7E0056
:100166008E8275830012098360060EEE653E70F07E
:10017600C2D5EBC0E0EAC0E0E9C0E0EE1202C9D0A9
:10018600E0F9D0E0FAD0E0FB12096AFF60AAEBC002
:10019600E0EAC0E0E9C0E0120071D0E02401F9D045
:1001A600E03400FAD0E0FBE53E0460DCD53ED980C1
:1001B600877BFF7A0279C5D202809C79108002790A
:1001C60008C206C2088008D2D5790A8004790AC214
:1001D600D5E53E047002F53EE4FAFDFEFF12003658
:1001E600FC7B08200113120036FD7B1030000A123A
:1001F6000036FE120036FF7B20EC3382D592D550B6
:1002060013C3E43000069FFFE49EFEE42001039D35
:10021600FDE49CFCE4CBF8C201EC700CCFCECDCC57
:10022600E824F8F870F38017C3EF33FFEE33FEEDE2
:1002360033FDEC33FCEB33FB994002FB0FD8E9EBC3
:10024600300105F8D0E0C448B201C0E00AEC4D4EDA
:100256004F78207B0070C2EAB53E0040BCC0E01279
:1002660002CBD0F0D0E0200104C4C0E0C4B201C08B
:10027600F012005AD0F0D5F0EB0200AA120A3201B1
:10028600475301C15801184C01144201C54F01CD15
:0F0296004401CD49012D4301D35501B74601B7AE
:1002A5004501B747037350011C2D01202E01432B37
:1002B50001242301412003612A00DC480000013BA1
:1002C5003F3F3F00790AA2D5200314300509B91034
:1002D500020404B9080104A2D52006025001042035
:1002E50002689202B53D005034C0E07F203003190A
:1002F5007F30A20272067205500F120322C202C29B
:1003050006C205C2087F30800F300503E9C0E01240
:100315000071300503D0E0F9D0E0B53DCC300517CC
:100325007F30B9100C1200717F583004077F788038
:1003350003B908031200713002057F2D0200717F99
:10034500202008F87F2B2006F322920280CF286E0A
:10035500756C6C29002D50434958D2011200363076
:1003650001F8C201783D30D50108F60200DC120023
:10037500362403B405004001E490035A9312006249
:0D038500743A120062D203753D040201C1FA
:100CAB0010090B120CD7BF0D027F0A020C1DAF0CE3
:010CBB002216
:10039200E53C30030104F82328242AF82278273088
:1003A2000302782AE475F001120A1202096A60EC6B
:1003B200C5407002153F14C540200304FF020CEA39
:1003C200782774FFF5F0020A22FF020C87E53D60F0
:1003D20006D53D037F002220030F120CABEF60080D
:1003E2000540E5407002053F227827120A091209EA
:1003F2006AFF60E97827E475F001120A1280DE12C2
:1004020003D9EFC0E01203CBD0E040F380A0D203C7
:100412008002C2038B278A288929E4F53EF53CF540
:100422003FF540753D00C202C200C201C204120380
:100432009FFF7005AF3E7E0022B4253012039FFF5E
:1004420024D0B40A00500C75F00AC53DA4253DF530
:100452003D80E924CFB41A00EF5002C2E5020675CE
:10046200D20180D8D20080D4D20480D0EF1203CB44
:100472005008120401EF600E80A9EFC0E01203D908
:10048200D0E06F609EEF60741203B080A71203D9B0
:10049200EF6069E53D7007053D80031203D9EF6007
:1004A2001420040E120392E475F001120A12EF12E4
:1004B20009B0D53DE6200404053C053E80BA12038E
:1004C200CFEFC0E01203CBD0E050041203B0E4FF40
:1004D20020040E120392E475F001120A12EF1209BF
:1004E200B0EF70DA200404053C053E808BE53D60E8
:1004F20002053D1204011203CFEF70C6300304E47B
:100502001203B0E53E60030204367EFF7FFF222025
:10051200041174FFFCFDFEFF120392120A09120974
:10052200EF053C020425D0E080D27900800A7910E0
:10053200800679088002790AD205E53D6002053D10
:10054200E9C0E0120401EF60DD1203D9BF2D04D22D
:10055200028003BF2B09120401EF60CA1203CFD03D
:10056200E0B40A028033B40802802EBF3027700242
:100572007408C205C0E01203CFD0E0BF7802800346
:10058200BF5816053DD53D028007D53D04D20580F2
:100592000B741080197002740ABF000AEFF8E4FCB1
:1005A200FDFEFF020628C0E0EF1203B0D0E0F9E43E
:1005B200FCFDFEFFE9C0E0ECC0E0EDC0E0EEC0E013
:1005C200EFC0E01203CFEFF8D0E0FFD0E0FED0E0C2
:1005D200FDD0E0FCD0F0E8604DB461004007B47B90
:1005E200005002C2E524D0503DFA24F6500724F907
:1005F2005034240AFAEAB5F000502BCFA9F0A42F08
:10060200FF92D5E9C5F0CEA4A2D53EFE92D5E9C5AA
:10061200F0CDA4A2D53DFD92D5E9C5F0CCA4A2D5DA
:0B0622003CFCC205808EE8C0E0200414
:10062D002A200508053E3002031209E11203921239
:10063D000A09053C20000B20010DEE8FF01209C2B6
:10064D0080091209EF8004EF1209B0D0E01203B057
:10065D00020425200410120392120A09053CE53FFD
:10066D008540F01209C280E8120A3204EF530530BA
:10067D005804664C046242043E4805344F05384424
:10068D00048F43052C4905385505114605114505BF
:0C069D001147046A2A06604E0000046E3B
:100CBC00EFC39461400AEF947B5005EF24E0FF22D0
:010CCC002205
:100B3D00020A7CE493A3F8E493A34003F68001F248
:100B4D0008DFF48029E493A3F85407240CC8C333B9
:100B5D00C4540F4420C8834004F456800146F6DF88
:100B6D00E4800B0102040810204080900CE1E47E2B
:100B7D00019360BCA3FF543F30E509541FFEE4937D
:100B8D00A360010ECF54C025E060A840B8E493A344
:100B9D00FAE493A3F8E493A3C8C582C8CAC583CA6F
:100BAD00F0A3C8C582C8CAC583CADFE9DEE780BE27
:010CE900000A
:10096A00BB010689828A83E0225002E722BBFE028B
:09097A00E32289828A83E49322BE
:10098300BB010CE58229F582E5833AF583E0225029
:1009930006E92582F8E622BBFE06E92582F8E22273
:0D09A300E58229F582E5833AF583E493228D
:1009B000BB010689828A83F0225002F722BBFE0126
:0209C000F32220
:1009C200BB010A89828A83F0E5F0A3F0225006F780
:0F09D20009A7F01922BBFE06F3E5F009F319227D
:0E09E100C3E49FFFE49EFEE49DFDE49CFC2227
:1009EF00BB010789828A83020A645005E9F8020A6B
:0A09FF0058BBFE05E9F8020A702259
:090A0900E6FB08E6FA08E6F92212
:100A1200FAE6FB0808E6F925F0F618E6CA3AF622E5
:100A2200FAE6FB0808E625F0F9F618E63AFAF622A5
:100A3200D083D082F8E4937012740193700DA3A353
:100A420093F8740193F5828883E473740293686067
:060A5200EFA3A3A380DF67
:100C1D00EFB40A07740D120C28740A309811A899B4
:100C2D00B8130CC2983098FDA899C298B811F63037
:070C3D0099FDC299F599220F
:0A0CD7003098FDAF99C2987E00220C
:050CEA008F0CD209226D
:100C8700EFC394094005EF940E4003BF2003D380C0
:030C970001C32274
:0C0A5800ECF608EDF608EEF608EFF622CA
:0C0A6400ECF0A3EDF0A3EEF0A3EFF02205
:0C0A7000ECF208EDF208EEF208EFF222C2
:00000001FF
