:030000000200609B
:1000600075CBFF75CAFB75CDFF75CCFB75985275C6
:10007000C83475D11075D32090010A1200E675D1ED
:100080001230DEFDE5DDC39480C0F0C0E030E70B48
:10009000742D1200DED0E0C0E0F40475F06484D268
:1000A000D56007C2D524301200DEE5F075F00A8471
:1000B00030D502600524301200DEE5F02430120055
:1000C000DED0E0D0F09000FD1200E674011200D204
:1000D00080ACFA7B327C83DCFEDBFADAF6223099E4
:1000E000FDC299F59922C0E0C0F0E4F5F0E5F00515
:1000F000F093600411DE80F5D0F0D0E0222064653A
:10010000677265657320430A0D000A0A0D5F5F5F21
:100110005F5F5F5F5F5F5F5F5F5F5F5F5F5F5F5FEF
:100120005F5F5F5F5F5F5F5F5F5F5F5F5F5F5F5FDF
:100130005F0A0D416E616C6F672044657669636587
:1001400073204D6963726F436F6E7665727465726A
:1001500020414475433832340A0D202020202020CD
:1001600054656D702053656E736F722044656D6FBA
:0B01700020526F7574696E650A0D0067
:00000001FF
