:0300000002004BB0
:10004B00759E83759D2D75985275EFAC75D800B262
:10005B00B47414120072D2DC30DFFDE5DA12009EAC
:10006B00E5D912009E80E8F97A1B7BFFDBFEDAFAFA
:10007B00D9F622C0E0C0F0E4F5F0E5F005F09360AE
:10008B000512009680F4D0F0D0E0223099FDC29991
:10009B00F59922C0E0C41200B21196D0E0C0E01274
:1000AB0000B21196D0E022540FB40A00400224078C
:1000BB00243022C39430B40A00401BB41100401307
:1000CB009407B41000400FB42A0040079420B410DA
:1000DB00004003C374FFB3223098FDE599C2982208
:1000EB00C0F0C000C29811E3F50011BE40F6C4F594
:1000FB00F0E5001196C29811E3F50011BE40F645EC
:0E010B00F0F5F0E5001196E5F0D000D0F022FE
:00000001FF
