:0F00000075D7007580FF759E86759D2D7598507C
:101000000C0D53454C494D2054415344454D4952D4
:0110100000DF
:102000000C0D313831303232353130332020202040
:1020100000113980111139B8000330E02620E002A8
:1020200080EF780080EB1139B9000530E12280E5BE
:1020300020E10280E0790080DCE4A28092E0A281CD
:1020400092E132E49010002893115D60D90880F38A
:10205000E49020002993115D60BB0980F3C299F5DB
:05206000993099FD32EA
:00000001FF
